008870AUPTBAD01AS BA 07062016214952                                                                                                                                                                                                                                                                                                                                                                            X
A201606070000000                   AS BA                 88868248                                                        DONOHUE                             JOHN III                        AS 0775AS 0775VV030616ABQ SEA      000000  Y                                                                                                                                                                      X
A201606070000001                   AS BA                 48618330                                                        LOWE                                NICHOLAS JUSTIN                 AS 0775AS 0775LL300516ABQ SEA      000000  Y                                                                                                                                                                      X
A201606070000002                   AS BA                 11155251                                                        LOWE                                RACHEL DAWN                     AS 0775AS 0775LL300516ABQ SEA      000000  Y                                                                                                                                                                      X
A201606070000003                   AS BA                 18167686                                                        LOWE                                TYLER ALEXANDER                 AS 0775AS 0775LL300516ABQ SEA      000000  Y                                                                                                                                                                      X
A201606070000004                   AS BA                 20679061                                                        HODGES                              DAVID                           AS 0055AS 0055HH040616ANC BRW      000000  Y                                                                                                                                                                      X
A201606070000005                   AS BA                 10792292                                                        FINKE                               JOHANNES                        AS 3298AS 3298LL020616ANC DUT      000000  Y                                                                                                                                                                      X
A201606070000006                   AS BA                 12712181                                                        SHAH                                VEENA MS                        AS 2807AS 2807LL010616ANC FAI      000000  Y                                                                                                                                                                      X
A201606070000007                   AS BA                 10117537                                                        SANDERS                             ALAN BENJAMI                    AS 2809AS 2809LL050616ANC FAI      000000  Y                                                                                                                                                                      X
A201606070000008                   AS BA                 11323936                                                        SANDERS                             GEORGINA                        AS 2809AS 2809LL050616ANC FAI      000000  Y                                                                                                                                                                      X
A201606070000009                   AS BA                 16910744                                                        DAVIES                              RHIAN                           AS 0730AS 0730KK010616ANC IAH      000000  Y                                                                                                                                                                      X
A201606070000010                   AS BA                 25862505                                                        MCFAUL                              LAURA                           AS 0730AS 0730KK010616ANC IAH      000000  Y                                                                                                                                                                      X
A201606070000011                   AS BA                 26344239                                                        SHAH                                BIPIN                           AS 0064AS 0064QQ020616ANC JNU      000000  Y                                                                                                                                                                      X
A201606070000012                   AS BA                 19927883                                                        SHAH                                NEHA                            AS 0064AS 0064QQ020616ANC JNU      000000  Y                                                                                                                                                                      X
A201606070000013                   AS BA                 26345857                                                        SHAH                                RITA                            AS 0064AS 0064QQ020616ANC JNU      000000  Y                                                                                                                                                                      X
A201606070000014                   AS BA                 34238144                                                        LOVERIDGE                           CLIVE                           AS 0070AS 0070QQ300516ANC JNU      000000  Y                                                                                                                                                                      X
A201606070000015                   AS BA                 19903342                                                        LOVERIDGE                           PATRICIA                        AS 0070AS 0070QQ300516ANC JNU      000000  Y                                                                                                                                                                      X
A201606070000016                   AS BA                 22435239                                                        NORRIS                              NOELENE                         AS 0150AS 0150GG020616ANC LAX      000000  Y                                                                                                                                                                      X
A201606070000017                   AS BA                 92297246                                                        SHIPPEY                             WILLIAM                         AS 0150AS 0150GG020616ANC LAX      000000  Y                                                                                                                                                                      X
A201606070000018                   AS BA                 45699248                                                        WATERS                              JOEWILLIAM                      AS 0150AS 0150RR020616ANC LAX      000000  Y                                                                                                                                                                      X
A201606070000019                   AS BA                 45571029                                                        LOHIA                               LALIT KUMAR                     AS 0142AS 0142TT050616ANC LAX      000000  Y                                                                                                                                                                      X
A201606070000020                   AS BA                 45571045                                                        LOHIA                               MADHU                           AS 0142AS 0142TT050616ANC LAX      000000  Y                                                                                                                                                                      X
A201606070000021                   AS BA                 40473666                                                        GEY VAN PITTIUS                     ADRI                            AS 0153AS 0153FF050616ANC OME      000000  Y                                                                                                                                                                      X
A201606070000022                   AS BA                 21710808                                                        LOBL                                ANTHONY                         AS 0134AS 0134VV040616ANC PDX      000000  Y                                                                                                                                                                      X
A201606070000023                   AS BA                 21796163                                                        KAUSHIKKAR                          SHANTANU                        AS 0090AS 0090QQ010616ANC SEA      000000  Y                                                                                                                                                                      X
A201606070000024                   AS BA                 65107616                                                        ALLISON                             AARON                           AS 0108AS 0108QQ010616ANC SEA      000000  Y                                                                                                                                                                      X
A201606070000025                   AS BA                 76778967                                                        FIENNES                             RANULPH SIR                     AS 0080AS 0080SS010616ANC SEA      000000  Y                                                                                                                                                                      X
A201606070000026                   AS BA                 97576174                                                        STROUD                              MICHAEL DR                      AS 0080AS 0080SS010616ANC SEA      000000  Y                                                                                                                                                                      X
A201606070000027                   AS BA                 14424409                                                        OELMAN                              DEEMRS                          AS 0098AS 0098GG020616ANC SEA      000000  Y                                                                                                                                                                      X
A201606070000028                   AS BA                 14437402                                                        OELMAN                              MICHAELMR                       AS 0098AS 0098GG020616ANC SEA      000000  Y                                                                                                                                                                      X
A201606070000029                   AS BA                 24188654                                                        GODBOLD                             ERIN                            AS 0094AS 0094MM020616ANC SEA      000000  Y                                                                                                                                                                      X
A201606070000030                   AS BA                 60417815                                                        GODBOLD                             VIVIENNE                        AS 0094AS 0094MM020616ANC SEA      000000  Y                                                                                                                                                                      X
A201606070000031                   AS BA                 10901866                                                        DE BACKER                           NICK                            AS 0102AS 0102PP020616ANC SEA      000000  Y                                                                                                                                                                      X
A201606070000032                   AS BA                 40126287                                                        CRAIG                               HENRY                           AS 0108AS 0108TT020616ANC SEA      000000  Y                                                                                                                                                                      X
A201606070000033                   AS BA                 49570661                                                        BATTER                              CHRISTINEMRS                    AS 0098AS 0098VV020616ANC SEA      000000  Y                                                                                                                                                                      X
A201606070000034                   AS BA                 49570594                                                        BATTER                              JOHNMR                          AS 0098AS 0098VV020616ANC SEA      000000  Y                                                                                                                                                                      X
A201606070000035                   AS BA                 40794131                                                        LAWRENCE                            YEEPINGMRS                      AS 0098AS 0098VV020616ANC SEA      000000  Y                                                                                                                                                                      X
A201606070000036                   AS BA                 GOLD63758783                                                    MAGUIRE                             PAUL MR                         AS 0086AS 0086PP030616ANC SEA      000000  Y                                                                                                                                                                      X
A201606070000037                   AS BA                 97679299                                                        EALDING                             CLAIRE ELIZA                    AS 0080AS 0080QQ030616ANC SEA      000000  Y                                                                                                                                                                      X
A201606070000038                   AS BA                 10509630                                                        OPT HOF                             HILMAR JOHAN                    AS 0080AS 0080QQ030616ANC SEA      000000  Y                                                                                                                                                                      X
A201606070000039                   AS BA                 26778813                                                        SCANNELL                            WILLIAM                         AS 0080AS 0080UU030616ANC SEA      000000  Y                                                                                                                                                                      X
A201606070000040                   AS BA                 36632893                                                        ROLFE                               EMMA                            AS 0080AS 0080GG040616ANC SEA      000000  Y                                                                                                                                                                      X
A201606070000041                   AS BA                 36632928                                                        ROLFE                               THOMAS                          AS 0080AS 0080GG040616ANC SEA      000000  Y                                                                                                                                                                      X
A201606070000042                   AS BA                 48829581                                                        HOPKINS                             BRIAN MR                        AS 0094AS 0094GG040616ANC SEA      000000  Y                                                                                                                                                                      X
A201606070000043                   AS BA                 20749808                                                        NELSON                              COLIN                           AS 0182AS 0182GG040616ANC SEA      000000  Y                                                                                                                                                                      X
A201606070000044                   AS BA                 61499792                                                        ONG                                 CLINTON                         AS 0090AS 0090RR040616ANC SEA      000000  Y                                                                                                                                                                      X
A201606070000045                   AS BA                 38757326                                                        KONIECZNY                           ADAM                            AS 0146AS 0146RR040616ANC SEA      000000  Y                                                                                                                                                                      X
A201606070000046                   AS BA                 61317295                                                        WHITTLE                             RICHARD                         AS 0146AS 0146RR040616ANC SEA      000000  Y                                                                                                                                                                      X
A201606070000047                   AS BA                 18565692                                                        SARASWAT                            SARITA                          AS 0730AS 0730RR040616ANC SEA      000000  Y                                                                                                                                                                      X
A201606070000048                   AS BA                 18566066                                                        SHAH                                RONIT                           AS 0730AS 0730RR040616ANC SEA      000000  Y                                                                                                                                                                      X
A201606070000049                   AS BA                 18566018                                                        SHAH                                AMIT                            AS 0730AS 0730TT040616ANC SEA      000000  Y                                                                                                                                                                      X
A201606070000050                   AS BA                 18566337                                                        SHAH                                ISHAN                           AS 0730AS 0730TT040616ANC SEA      000000  Y                                                                                                                                                                      X
A201606070000051                   AS BA                 53469069                                                        ZAINALABEDIN                        KHALID                          AS 0052AS 0052FF050616ANC SEA      000000  Y                                                                                                                                                                      X
A201606070000052                   AS BA                 80187384                                                        SUEL                                ROSE                            AS 0106AS 0106GG050616ANC SEA      000000  Y                                                                                                                                                                      X
A201606070000053                   AS BA                 12812344                                                        DELSUC                              STEVEN EDWARD                   AS 0080AS 0080QQ050616ANC SEA      000000  Y                                                                                                                                                                      X
A201606070000054                   AS BA                 27562861                                                        BRIGHAM                             TYLER                           AS 0080AS 0080RR050616ANC SEA      000000  Y                                                                                                                                                                      X
A201606070000055                   AS BA                 40889053                                                        KOAY                                HONGKEAT                        AS 0146AS 0146RR050616ANC SEA      000000  Y                                                                                                                                                                      X
A201606070000056                   AS BA                 40889150                                                        SAW                                 SIEWCHENG                       AS 0146AS 0146RR050616ANC SEA      000000  Y                                                                                                                                                                      X
A201606070000057                   AS BA                 26378492                                                        MORLOT                              GHIZLANE                        AS 0094AS 0094TT050616ANC SEA      000000  Y                                                                                                                                                                      X
A201606070000058                   AS BA                 60757563                                                        GOPALAN                             VIJAYAKUMAR                     AS 0110AS 0110TT300516ANC SEA      000000  Y                                                                                                                                                                      X
A201606070000059                   AS BA                 60757614                                                        VIJAYAKUMAR                         REVATHI                         AS 0110AS 0110TT300516ANC SEA      000000  Y                                                                                                                                                                      X
A201606070000060                   AS BA                 72332997                                                        DINES                               TIMOTHYMR                       AS 0094AS 0094FF310516ANC SEA      000000  Y                                                                                                                                                                      X
A201606070000061                   AS BA                 44726686                                                        KHURANA                             DARSHAN                         AS 0092AS 0092RR310516ANC SEA      000000  Y                                                                                                                                                                      X
A201606070000062                   AS BA                 88838575                                                        KHURANA                             JAIDEEP                         AS 0092AS 0092RR310516ANC SEA      000000  Y                                                                                                                                                                      X
A201606070000063                   AS BA                 44726699                                                        KHURANA                             SHARNA                          AS 0092AS 0092RR310516ANC SEA      000000  Y                                                                                                                                                                      X
A201606070000064                   AS BA                 26014864                                                        PAULOS                              AMANUEL                         AS 0745AS 0745LL310516ATL SEA      000000  Y                                                                                                                                                                      X
A201606070000065                   AS BA                 31224904                                                        PRABHU                              SURESHRADHAKR                   AS 0671AS 0671GG030616AUS SEA      000000  Y                                                                                                                                                                      X
A201606070000066                   AS BA                 36835996                                                        SILLS                               ALEXANDER JOSE                  AS 0671AS 0671HH050616AUS SEA      000000  Y                                                                                                                                                                      X
A201606070000067                   AS BA                 14172526                                                        MARTIN                              TROY A                          AS 0671AS 0671BB310516AUS SEA      000000  Y                                                                                                                                                                      X
A201606070000068                   AS BA                 31282358                                                        FAWCETT                             AMIRA                           AS 0693AS 0693KK310516AUS SEA      000000  Y                                                                                                                                                                      X
A201606070000069                   AS BA                 97985720                                                        MATHUR                              ARJUN                           AS 2511AS 2511SS020616BLI SEA      000000  Y                                                                                                                                                                      X
A201606070000070                   AS BA                 31712353                                                        GODDARD                             RICHARD D DR                    AS 2481AS 2481MM050616BLI SEA      000000  Y                                                                                                                                                                      X
A201606070000071                   AS BA                 50280256                                                        KOSTYUK                             IVAN                            AS 0735AS 0735HH010616BNA SEA      000000  Y                                                                                                                                                                      X
A201606070000072                   AS BA                 36062378                                                        SENTER                              DAVID MR                        AS 2133AS 2133GG040616BOI SEA      000000  Y                                                                                                                                                                      X
A201606070000073                   AS BA                 18779846                                                        SENTER                              GLYNIS MRS                      AS 2133AS 2133GG040616BOI SEA      000000  Y                                                                                                                                                                      X
A201606070000074                   AS BA                 67705107                                                        CAMPBELL                            DARRELL JR                      AS 2551AS 2551VV300516BOI SEA      000000  Y                                                                                                                                                                      X
A201606070000075                   AS BA                 59757756                                                        NICHOLS                             KATHLEEN                        AS 2133AS 2133KK310516BOI SEA      000000  Y                                                                                                                                                                      X
A201606070000076                   AS BA                 13508489                                                        SENNIW                              DONNA                           AS 2139AS 2139MM310516BOI SEA      000000  Y                                                                                                                                                                      X
A201606070000077                   AS BA                 45968773                                                        YASTREBENETSKY                      MARIN                           AS 2403AS 2403TT040616BOI SJC      000000  Y                                                                                                                                                                      X
A201606070000078                   AS BA                 45968747                                                        YASTREBENETSKY                      MARK                            AS 2403AS 2403TT040616BOI SJC      000000  Y                                                                                                                                                                      X
A201606070000079                   AS BA                 25676602                                                        DELNEGRO                            SILVANO                         AS 0033AS 0033LL010616BOS PDX      000000  Y                                                                                                                                                                      X
A201606070000080                   AS BA                 26327934                                                        SOLASAGALES PUIGSASL                                                AS 0769AS 0769YY300516BOS SAN      000000  Y                                                                                                                                                                      X
A201606070000081                   AS BA                 19472386                                                        HULT                                JENSMR                          AS 0769AS 0769FF310516BOS SAN      000000  Y                                                                                                                                                                      X
A201606070000082                   AS BA                 82939298                                                        SMIT                                ALWYN                           AS 0769AS 0769FF310516BOS SAN      000000  Y                                                                                                                                                                      X
A201606070000083                   AS BA                 91027778                                                        PUTNAM                              CONSTANCE                       AS 0025AS 0025TT020616BOS SEA      000000  Y                                                                                                                                                                      X
A201606070000084                   AS BA                 88732811                                                        BERNERS LEE                         TIMOTHY                         AS 0737AS 0737FF040616BOS SEA      000000  Y                                                                                                                                                                      X
A201606070000085                   AS BA                 32839469                                                        LEITH                               ROSEMARY                        AS 0737AS 0737FF040616BOS SEA      000000  Y                                                                                                                                                                      X
A201606070000086                   AS BA                 36346569                                                        LEE                                 MEIYEE                          AS 0737AS 0737QQ040616BOS SEA      000000  Y                                                                                                                                                                      X
A201606070000087                   AS BA                 36598284                                                        GUNDLE                              MICHAEL                         AS 0737AS 0737BB050616BOS SEA      000000  Y                                                                                                                                                                      X
A201606070000088                   AS BA                 49639446                                                        FARRELL                             SINEADLOUISE                    AS 0050AS 0050YY010616BRW ANC      000000  Y                                                                                                                                                                      X
A201606070000089                   AS BA                 20679061                                                        HODGES                              DAVID                           AS 0050AS 0050SS050616BRW ANC      000000  Y                                                                                                                                                                      X
A201606070000090                   AS BA                 49203874                                                        WHELAN                              BRIAN HAMILTO                   AS 0531AS 0531GG020616BUR SEA      000000  Y                                                                                                                                                                      X
A201606070000091                   AS BA                 13133579                                                        GOODIN                              LISA MS                         AS 0523AS 0523QQ050616BUR SEA      000000  Y                                                                                                                                                                      X
A201606070000092                   AS BA                 24613440                                                        HENSON                              CHRISTOPHER M                   AS 0523AS 0523QQ050616BUR SEA      000000  Y                                                                                                                                                                      X
A201606070000093                   AS BA                 36597280                                                        SWANER                              GARY II                         AS 0531AS 0531LL310516BUR SEA      000000  Y                                                                                                                                                                      X
A201606070000094                   AS BA                 36609176                                                        ONYENAKA                            MARAIZU                         AS 0767AS 0767VV020616BWI SEA      000000  Y                                                                                                                                                                      X
A201606070000095                   AS BA                 60378039                                                        CLARK                               GRAHAM                          AS 0767AS 0767QQ040616BWI SEA      000000  Y                                                                                                                                                                      X
A201606070000096                   AS BA                 45758681                                                        GREST SCHUMACHER                    AND                             AS 2453AS 2453KK030616BZN SEA      000000  Y                                                                                                                                                                      X
A201606070000097                   AS BA                 45758691                                                        MUELLER                             JOACHIM                         AS 2453AS 2453KK030616BZN SEA      000000  Y                                                                                                                                                                      X
A201606070000098                   AS BA                 49926589                                                        KIRKHAM                             SYLVIE                          AS 2455AS 2455VV300516BZN SEA      000000  Y                                                                                                                                                                      X
A201606070000099                   AS BA                 93905399                                                        HENDERSON                           TURI                            AS 0799AS 0799QQ300516CHS SEA      000000  Y                                                                                                                                                                      X
A201606070000100                   AS BA                 75553836                                                        HAJJ                                MONA                            AS 0005AS 0005FF020616DCA LAX      000000  Y                                                                                                                                                                      X
A201606070000101                   AS BA                 17344457                                                        HODGES                              JENNIFER                        AS 0005AS 0005KK030616DCA LAX      000000  Y                                                                                                                                                                      X
A201606070000102                   AS BA                 41434164                                                        GIDDEN                              CHRISTOPHER W                   AS 0005AS 0005FF300516DCA LAX      000000  Y                                                                                                                                                                      X
A201606070000103                   AS BA                 45655152                                                        ROTHWELL                            JASON EDMUN                     AS 0001AS 0001YY030616DCA SEA      000000  Y                                                                                                                                                                      X
A201606070000104                   AS BA                 24548632                                                        POTTER                              BONNIE                          AS 0001AS 0001QQ040616DCA SEA      000000  Y                                                                                                                                                                      X
A201606070000105                   AS BA                 60107423                                                        DAVIS                               MARK                            AS 0003AS 0003QQ050616DCA SEA      000000  Y                                                                                                                                                                      X
A201606070000106                   AS BA                 25696077                                                        SPENCER                             CHARLOTTE                       AS 0003AS 0003HH300516DCA SEA      000000  Y                                                                                                                                                                      X
A201606070000107                   AS BA                 62597461                                                        BARTOSH                             TY                              AS 0677AS 0677PP020616DEN SEA      000000  Y                                                                                                                                                                      X
A201606070000108                   AS BA                 12563922                                                        PEDERSEN                            LISA                            AS 0675AS 0675GG030616DEN SEA      000000  Y                                                                                                                                                                      X
A201606070000109                   AS BA                 34894822                                                        WILLIAMS                            CHARLES                         AS 0679AS 0679VV030616DEN SEA      000000  Y                                                                                                                                                                      X
A201606070000110                   AS BA                 91845660                                                        WILLIAMS                            KAREN                           AS 0679AS 0679VV030616DEN SEA      000000  Y                                                                                                                                                                      X
A201606070000111                   AS BA                 12214445                                                        WILLIAMS                            OLIVIA                          AS 0679AS 0679VV030616DEN SEA      000000  Y                                                                                                                                                                      X
A201606070000112                   AS BA                 92395705                                                        OWEN                                AMY ALICE MS                    AS 0677AS 0677MM040616DEN SEA      000000  Y                                                                                                                                                                      X
A201606070000113                   AS BA                 10244927                                                        SHAW                                DONNA                           AS 0683AS 0683FF300516DEN SEA      000000  Y                                                                                                                                                                      X
A201606070000114                   AS BA                 26209364                                                        BALAMURTHY                          RUKMINI                         AS 0679AS 0679HH300516DEN SEA      000000  Y                                                                                                                                                                      X
A201606070000115                   AS BA                 73138284                                                        NANJAPPA                            MONICA                          AS 0679AS 0679UU300516DEN SEA      000000  Y                                                                                                                                                                      X
A201606070000116                   AS BA                 18512026                                                        CAREW                               ERIKADMS                        AS 3389AS 3389GG040616DFW PDX      000000  Y                                                                                                                                                                      X
A201606070000117                   AS BA                 18745881                                                        COE                                 BREANNERMS                      AS 3389AS 3389GG040616DFW PDX      000000  Y                                                                                                                                                                      X
A201606070000118                   AS BA                 16355478                                                        WOODALL                             THOMASGRIFFI                    AS 3389AS 3389GG040616DFW PDX      000000  Y                                                                                                                                                                      X
A201606070000119                   AS BA                 10457859                                                        TAS                                 ADRIANUS MR                     AS 2069AS 2069QQ010616EAT SEA      000000  Y                                                                                                                                                                      X
A201606070000120                   AS BA                 25320454                                                        OSAGIE                              ANDREW                          AS 2588AS 2588QQ300516EUG SEA      000000  Y                                                                                                                                                                      X
A201606070000121                   AS BA                 90143308                                                        MOVERLEY                            ROBERT                          AS 2496AS 2496BB310516EUG SEA      000000  Y                                                                                                                                                                      X
A201606070000122                   AS BA                 16784844                                                        DEVEREUX                            SEBASTIAN                       AS 0011AS 0011HH050616EWR SEA      000000  Y                                                                                                                                                                      X
A201606070000123                   AS BA                 61209350                                                        HUNTER                              REBECCA                         AS 0011AS 0011VV050616EWR SEA      000000  Y                                                                                                                                                                      X
A201606070000124                   AS BA                 12414832                                                        ARMENI                              CATERINA MS                     AS 2804AS 2804VV020616FAI ANC      000000  Y                                                                                                                                                                      X
A201606070000125                   AS BA                 18256604                                                        LESTER                              MARKMR                          AS 0126AS 0126QQ030616FAI SEA      000000  Y                                                                                                                                                                      X
A201606070000126                   AS BA                 50016092                                                        JANKELSON                           ROBERT R                        AS 0126AS 0126UU300516FAI SEA      000000  Y                                                                                                                                                                      X
A201606070000127                   AS BA                 70989387                                                        BERMUDEZ                            RYAN A                          AS 2143AS 2143GG300516FAT SAN      000000  Y                                                                                                                                                                      X
A201606070000128                   AS BA                 70989387                                                        OVERSTREET                          GARY                            AS 2143AS 2143GG300516FAT SAN      000000  Y                                                                                                                                                                      X
A201606070000129                   AS BA                 99984660                                                        BROWN                               JENNIFER                        AS 3495AS 3495LL030616FAT SEA      000000  Y                                                                                                                                                                      X
A201606070000130                   AS BA                 36604557                                                        AUSTIN                              LISA ANNE                       AS 2277AS 2277GG050616FCA PDX      000000  Y                                                                                                                                                                      X
A201606070000131                   AS BA                 12007626                                                        WRENN                               JOHN                            AS 0235AS 0235UU020616GDL SJC      000000  Y                                                                                                                                                                      X
A201606070000132                   AS BA                 36688407                                                        ZHANG                               WEI                             AS 2355AS 2355LL300516GEG PDX      000000  Y                                                                                                                                                                      X
A201606070000133                   AS BA                 44344811                                                        NALLAPATY                           HARIHARAPR                      AS 2411AS 2411HH020616GEG SEA      000000  Y                                                                                                                                                                      X
A201606070000134                   AS BA                 90685206                                                        MOSS                                RAMON MR                        AS 2327AS 2327GG050616GEG SEA      000000  Y                                                                                                                                                                      X
A201606070000135                   AS BA                 12992949                                                        EVANS                               PATRICIA                        AS 2225AS 2225KK050616GEG SEA      000000  Y                                                                                                                                                                      X
A201606070000136                   AS BA                 12752382                                                        EVANS                               THOMAS                          AS 2225AS 2225KK050616GEG SEA      000000  Y                                                                                                                                                                      X
A201606070000137                   AS BA                 16033265                                                        ROBSON                              DAVID MR                        AS 2411AS 2411VV050616GEG SEA      000000  Y                                                                                                                                                                      X
A201606070000138                   AS BA                 10859316                                                        ROBSON                              SHARON MRS                      AS 2411AS 2411VV050616GEG SEA      000000  Y                                                                                                                                                                      X
A201606070000139                   AS BA                 19406691                                                        FARROW                              PAULA JANICE                    AS 2235AS 2235YY050616GEG SEA      000000  Y                                                                                                                                                                      X
A201606070000140                   AS BA                 49130454                                                        SOLES                               MICHAEL                         AS 0691AS 0691RR310516GEG SEA      000000  Y                                                                                                                                                                      X
A201606070000141                   AS BA                 87289827                                                        PEARCE                              PAMELA                          AS 2065AS 2065VV300516HLN SEA      000000  Y                                                                                                                                                                      X
A201606070000142                   AS BA                 12677232                                                        GASPIC                              IVANA                           AS 0838AS 0838PP050616HNL OAK      000000  Y                                                                                                                                                                      X
A201606070000143                   AS BA                 11570449                                                        THORNTON                            CHRISTOPHER                     AS 0838AS 0838PP050616HNL OAK      000000  Y                                                                                                                                                                      X
A201606070000144                   AS BA                 10978822                                                        GRIFFITHS                           SARAH                           AS 0834AS 0834KK030616HNL PDX      000000  Y                                                                                                                                                                      X
A201606070000145                   AS BA                 10547270                                                        HILTON                              GIULIANA                        AS 0892AS 0892KK030616HNL SAN      000000  Y                                                                                                                                                                      X
A201606070000146                   AS BA                 43021289                                                        MORRELL                             ELIZABETH AN                    AS 0892AS 0892PP040616HNL SAN      000000  Y                                                                                                                                                                      X
A201606070000147                   AS BA                 43021292                                                        MORRELL                             JOHN                            AS 0892AS 0892PP040616HNL SAN      000000  Y                                                                                                                                                                      X
A201606070000148                   AS BA                 97655951                                                        ELSAID                              HOWAIDA                         AS 0892AS 0892KK050616HNL SAN      000000  Y                                                                                                                                                                      X
A201606070000149                   AS BA                 63829114                                                        SHUKAIR                             MUTAZ                           AS 0892AS 0892VV050616HNL SAN      000000  Y                                                                                                                                                                      X
A201606070000150                   AS BA                 16461160                                                        AL ALAWI                            NADIA                           AS 0892AS 0892PP300516HNL SAN      000000  Y                                                                                                                                                                      X
A201606070000151                   AS BA                 16461258                                                        MARONI                              MAYA                            AS 0892AS 0892PP300516HNL SAN      000000  Y                                                                                                                                                                      X
A201606070000152                   AS BA                 16461250                                                        MARONI                              MIRA                            AS 0892AS 0892PP300516HNL SAN      000000  Y                                                                                                                                                                      X
A201606070000153                   AS BA                 16461266                                                        MARONI                              ROBERT                          AS 0892AS 0892PP300516HNL SAN      000000  Y                                                                                                                                                                      X
A201606070000154                   AS BA                 24958356                                                        CARIGNAN                            DEAN                            AS 0729AS 0729VV050616IAD SEA      000000  Y                                                                                                                                                                      X
A201606070000155                   AS BA                 45256500                                                        CARIGNAN                            LUCAS                           AS 0729AS 0729VV050616IAD SEA      000000  Y                                                                                                                                                                      X
A201606070000156                   AS BA                 25020221                                                        CORTES                              FLAVIA                          AS 0729AS 0729VV050616IAD SEA      000000  Y                                                                                                                                                                      X
A201606070000157                   AS BA                 93963933                                                        JORDAN                              JOHN EDWARD                     AS 0755AS 0755FF310516IAH ANC      000000  Y                                                                                                                                                                      X
A201606070000158                   AS BA                 90173498                                                        BECK                                HELENE                          AS 0755AS 0755GG010616IAH SEA      000000  Y                                                                                                                                                                      X
A201606070000159                   AS BA                 36701426                                                        WALTERS                             NORA                            AS 0755AS 0755KK010616IAH SEA      000000  Y                                                                                                                                                                      X
A201606070000160                   AS BA                 61138019                                                        KATIKANENI                          SARITHA                         AS 0723AS 0723MM020616IAH SEA      000000  Y                                                                                                                                                                      X
A201606070000161                   AS BA                 49832209                                                        BRANDT                              AUBREY                          AS 0007AS 0007LL030616JFK SEA      000000  Y                                                                                                                                                                      X
A201606070000162                   AS BA                 45121238                                                        WALKER                              NEIL                            AS 0007AS 0007LL030616JFK SEA      000000  Y                                                                                                                                                                      X
A201606070000163                   AS BA                 36874657                                                        MILLINGTON                          CHRISTOPH                       AS 0073AS 0073SS010616JNU ANC      000000  Y                                                                                                                                                                      X
A201606070000164                   AS BA                 45571029                                                        LOHIA                               LALIT KUMAR                     AS 0073AS 0073LL020616JNU ANC      000000  Y                                                                                                                                                                      X
A201606070000165                   AS BA                 45571045                                                        LOHIA                               MADHU                           AS 0073AS 0073LL020616JNU ANC      000000  Y                                                                                                                                                                      X
A201606070000166                   AS BA                 10117537                                                        SANDERS                             ALAN BENJAMI                    AS 0065AS 0065HH050616JNU ANC      000000  Y                                                                                                                                                                      X
A201606070000167                   AS BA                 11323936                                                        SANDERS                             GEORGINA                        AS 0065AS 0065HH050616JNU ANC      000000  Y                                                                                                                                                                      X
A201606070000168                   AS BA                 36595071                                                        GAIND                               KUSUM                           AS 0078AS 0078RR030616JNU SEA      000000  Y                                                                                                                                                                      X
A201606070000169                   AS BA                 91939346                                                        PURI                                RUPINDER                        AS 0078AS 0078RR030616JNU SEA      000000  Y                                                                                                                                                                      X
A201606070000170                   AS BA                 19624099                                                        THORNTON                            CHARLES                         AS 0072AS 0072MM050616JNU SEA      000000  Y                                                                                                                                                                      X
A201606070000171                   AS BA                 20083930                                                        WATSON                              JEANNE                          AS 0072AS 0072MM050616JNU SEA      000000  Y                                                                                                                                                                      X
A201606070000172                   AS BA                 19698762                                                        DAVIDS                              JESTINE EVELY                   AS 0078AS 0078QQ310516JNU SEA      000000  Y                                                                                                                                                                      X
A201606070000173                   AS BA                 91562797                                                        LEYLAND                             ANDREW                          AS 0176AS 0176RR310516JNU SEA      000000  Y                                                                                                                                                                      X
A201606070000174                   AS BA                 91562743                                                        PIATT                               KAREN                           AS 0176AS 0176RR310516JNU SEA      000000  Y                                                                                                                                                                      X
A201606070000175                   AS BA                 19934729                                                        ROOS                                NADJAMISS                       AS 0176AS 0176RR310516JNU SEA      000000  Y                                                                                                                                                                      X
A201606070000176                   AS BA                 13791550                                                        MICKO                               ANDREW MR                       AS 0846AS 0846UU020616KOA OAK      000000  Y                                                                                                                                                                      X
A201606070000177                   AS BA                 99577976                                                        HILLAN                              KENNETH                         AS 0846AS 0846PP040616KOA OAK      000000  Y                                                                                                                                                                      X
A201606070000178                   AS BA                 88702049                                                        ROBERTSON                           IAN                             AS 0846AS 0846PP040616KOA OAK      000000  Y                                                                                                                                                                      X
A201606070000179                   AS BA                 50020475                                                        EVERALL                             MARTIN                          AS 0826AS 0826GG050616KOA OAK      000000  Y                                                                                                                                                                      X
A201606070000180                   AS BA                 76896152                                                        WEI                                 YI ZHEN                         AS 0826AS 0826GG050616KOA OAK      000000  Y                                                                                                                                                                      X
A201606070000181                   AS BA                 24116693                                                        BESIK                               HEIDI                           AS 0826AS 0826VV300516KOA OAK      000000  Y                                                                                                                                                                      X
A201606070000182                   AS BA                 24116691                                                        BESIK                               LEVENT                          AS 0826AS 0826VV300516KOA OAK      000000  Y                                                                                                                                                                      X
A201606070000183                   AS BA                 49935676                                                        ANDERSON                            COLIN                           AS 0804AS 0804LL010616KOA SAN      000000  Y                                                                                                                                                                      X
A201606070000184                   AS BA                 49935671                                                        MA                                  JANET                           AS 0804AS 0804LL010616KOA SAN      000000  Y                                                                                                                                                                      X
A201606070000185                   AS BA                 36416101                                                        GREEN                               JEREMI MR                       AS 0804AS 0804UU030616KOA SAN      000000  Y                                                                                                                                                                      X
A201606070000186                   AS BA                 63038329                                                        SEIWALD                             JOHANN                          AS 0850AS 0850GG030616KOA SEA      000000  Y                                                                                                                                                                      X
A201606070000187                   AS BA                 92302335                                                        WALL                                GEOFFREY                        AS 0876AS 0876LL030616KOA SEA      000000  Y                                                                                                                                                                      X
A201606070000188                   AS BA                 92302333                                                        WALL                                MARION                          AS 0876AS 0876LL030616KOA SEA      000000  Y                                                                                                                                                                      X
A201606070000189                   AS BA                 97708526                                                        REAGAN                              TARA                            AS 0850AS 0850TT040616KOA SEA      000000  Y                                                                                                                                                                      X
A201606070000190                   AS BA                 10244927                                                        SHAW                                DONNA                           AS 0876AS 0876PP050616KOA SEA      000000  Y                                                                                                                                                                      X
A201606070000191                   AS BA                 18507571                                                        LIMPAPHAYOM                         WANTHANE                        AS 0850AS 0850VV300516KOA SEA      000000  Y                                                                                                                                                                      X
A201606070000192                   AS BA                 18507559                                                        RANJAN                              ILLA                            AS 0850AS 0850VV300516KOA SEA      000000  Y                                                                                                                                                                      X
A201606070000193                   AS BA                 18507525                                                        RANJAN                              NILESH                          AS 0850AS 0850VV300516KOA SEA      000000  Y                                                                                                                                                                      X
A201606070000194                   AS BA                 10514537                                                        YOUNGER                             YVONNE                          AS 0850AS 0850GG310516KOA SEA      000000  Y                                                                                                                                                                      X
A201606070000195                   AS BA                 40227614                                                        FABRICIO                            GIANPIETRO                      AS 0621AS 0621PP010616LAS PDX      000000  Y                                                                                                                                                                      X
A201606070000196                   AS BA                 43448755                                                        WILSON                              TERI                            AS 0629AS 0629HH050616LAS PDX      000000  Y                                                                                                                                                                      X
A201606070000197                   AS BA                 26313017                                                        GATPATAN                            JOSEPH                          AS 0605AS 0605VV020616LAS SEA      000000  Y                                                                                                                                                                      X
A201606070000198                   AS BA                 30870686                                                        ATTWELL                             SIMON                           AS 0605AS 0605KK030616LAS SEA      000000  Y                                                                                                                                                                      X
A201606070000199                   AS BA                 64118417                                                        FOWLER                              ROBERT                          AS 0615AS 0615QQ040616LAS SEA      000000  Y                                                                                                                                                                      X
A201606070000200                   AS BA                 97751475                                                        DESAI                               CHETANA VIVEKA                  AS 0611AS 0611TT040616LAS SEA      000000  Y                                                                                                                                                                      X
A201606070000201                   AS BA                 91696005                                                        FRANCKE                             BRYNMOR                         AS 0605AS 0605BB050616LAS SEA      000000  Y                                                                                                                                                                      X
A201606070000202                   AS BA                 26227860                                                        GODFREY                             PAULA                           AS 0635AS 0635MM050616LAS SEA      000000  Y                                                                                                                                                                      X
A201606070000203                   AS BA                 19499690                                                        ANGLUM                              ADELE                           AS 0617AS 0617PP050616LAS SEA      000000  Y                                                                                                                                                                      X
A201606070000204                   AS BA                 19538329                                                        ANGLUM                              MARK                            AS 0617AS 0617PP050616LAS SEA      000000  Y                                                                                                                                                                      X
A201606070000205                   AS BA                 13374250                                                        GUAN                                XIAN                            AS 0175AS 0175KK300516LAX ANC      000000  Y                                                                                                                                                                      X
A201606070000206                   AS BA                 13374256                                                        ZHANG                               BO                              AS 0175AS 0175KK300516LAX ANC      000000  Y                                                                                                                                                                      X
A201606070000207                   AS BA                 13374157                                                        ZHANG                               YATING                          AS 0175AS 0175KK300516LAX ANC      000000  Y                                                                                                                                                                      X
A201606070000208                   AS BA                 61219939                                                        MAKARITIS                           CHRISTOS                        AS 0175AS 0175FF310516LAX ANC      000000  Y                                                                                                                                                                      X
A201606070000209                   AS BA                 36434751                                                        PACHINO                             MELVIN                          AS 0740AS 0740VV020616LAX BWI      000000  Y                                                                                                                                                                      X
A201606070000210                   AS BA                 41434164                                                        GIDDEN                              CHRISTOPHER W                   AS 0006AS 0006FF020616LAX DCA      000000  Y                                                                                                                                                                      X
A201606070000211                   AS BA                 25336421                                                        TAN                                 DAVID                           AS 0006AS 0006GG020616LAX DCA      000000  Y                                                                                                                                                                      X
A201606070000212                   AS BA                 10916081                                                        MILLIGAN                            LYDIA JANE                      AS 0006AS 0006GG030616LAX DCA      000000  Y                                                                                                                                                                      X
A201606070000213                   AS BA                 17344457                                                        HODGES                              JENNIFER                        AS 0006AS 0006HH050616LAX DCA      000000  Y                                                                                                                                                                      X
A201606070000214                   AS BA                 62318694                                                        ARNOT                               DOUGLAS                         AS 2420AS 2420MM030616LAX MFR      000000  Y                                                                                                                                                                      X
A201606070000215                   AS BA                 40275955                                                        WILLIAMS                            MICHAEL                         AS 0575AS 0575FF020616LAX PDX      000000  Y                                                                                                                                                                      X
A201606070000216                   AS BA                 13299717                                                        BROWN                               KENNETH MR                      AS 0441AS 0441GG020616LAX PDX      000000  Y                                                                                                                                                                      X
A201606070000217                   AS BA                 24432938                                                        LAXSON                              THOMAS JOHN M                   AS 0441AS 0441TT020616LAX PDX      000000  Y                                                                                                                                                                      X
A201606070000218                   AS BA                 63679663                                                        TU                                  STEPHEN                         AS 0575AS 0575UU030616LAX PDX      000000  Y                                                                                                                                                                      X
A201606070000219                   AS BA                 30076425                                                        HILLERUP                            CAROLINE MS                     AS 0543AS 0543KK050616LAX PDX      000000  Y                                                                                                                                                                      X
A201606070000220                   AS BA                 37771174                                                        THOEGERSEN                          ANDERS MR                       AS 0543AS 0543KK050616LAX PDX      000000  Y                                                                                                                                                                      X
A201606070000221                   AS BA                 11194454                                                        MORTON                              CHRISTOPHERMR                   AS 0421AS 0421HH300516LAX PDX      000000  Y                                                                                                                                                                      X
A201606070000222                   AS BA                 44746648                                                        HEALE                               DANIEL                          AS 0441AS 0441LL310516LAX PDX      000000  Y                                                                                                                                                                      X
A201606070000223                   AS BA                 24227712                                                        RICKWOOD                            CHRISTOPHER                     AS 0441AS 0441QQ310516LAX PDX      000000  Y                                                                                                                                                                      X
A201606070000224                   AS BA                 90143308                                                        MOVERLEY                            ROBERT F                        AS 0563AS 0563YY310516LAX PDX      000000  Y                                                                                                                                                                      X
A201606070000225                   AS BA                 21576415                                                        LOWE                                SARAH ANN                       AS 0250AS 0250TT050616LAX PVR      000000  Y                                                                                                                                                                      X
A201606070000226                   AS BA                 86159946                                                        ABERNATHY                           CAROL                           AS 0254AS 0254TT050616LAX PVR      000000  Y                                                                                                                                                                      X
A201606070000227                   AS BA                 25142547                                                        KOOIMAN                             ERIC                            AS 0477AS 0477GG020616LAX SEA      000000  Y                                                                                                                                                                      X
A201606070000228                   AS BA                 25873298                                                        RACHMAN                             NADYA                           AS 0477AS 0477GG020616LAX SEA      000000  Y                                                                                                                                                                      X
A201606070000229                   AS BA                 18622698                                                        CASTOR PERRY                        JANE                            AS 0479AS 0479GG030616LAX SEA      000000  Y                                                                                                                                                                      X
A201606070000230                   AS BA                 29743456                                                        ROALD                               HELGE                           AS 0541AS 0541QQ030616LAX SEA      000000  Y                                                                                                                                                                      X
A201606070000231                   AS BA                 61308765                                                        FELL                                CAROLINE                        AS 0477AS 0477RR030616LAX SEA      000000  Y                                                                                                                                                                      X
A201606070000232                   AS BA                 54328140                                                        FARSAI                              SHAHIN                          AS 0455AS 0455KK040616LAX SEA      000000  Y                                                                                                                                                                      X
A201606070000233                   AS BA                 99433017                                                        YORKE                               MICHELLE MRS                    AS 0457AS 0457FF050616LAX SEA      000000  Y                                                                                                                                                                      X
A201606070000234                   AS BA                 10490809                                                        ALZATE                              JENNY MS                        AS 0459AS 0459KK050616LAX SEA      000000  Y                                                                                                                                                                      X
A201606070000235                   AS BA                 14214002                                                        VISAN                               LAURA MS                        AS 0459AS 0459KK050616LAX SEA      000000  Y                                                                                                                                                                      X
A201606070000236                   AS BA                 18316849                                                        AYYOUB                              RAED MR                         AS 0509AS 0509QQ050616LAX SEA      000000  Y                                                                                                                                                                      X
A201606070000237                   AS BA                 17178943                                                        THOMPSON                            ABBY DR                         AS 0511AS 0511QQ050616LAX SEA      000000  Y                                                                                                                                                                      X
A201606070000238                   AS BA                 25169998                                                        SCHLAEFER                           PHILIPP                         AS 0463AS 0463VV050616LAX SEA      000000  Y                                                                                                                                                                      X
A201606070000239                   AS BA                 12777402                                                        WADDELL                             KAREN                           AS 0511AS 0511BB300516LAX SEA      000000  Y                                                                                                                                                                      X
A201606070000240                   AS BA                 10748136                                                        STRATTON                            ELIZABETH                       AS 0453AS 0453KK300516LAX SEA      000000  Y                                                                                                                                                                      X
A201606070000241                   AS BA                 97559553                                                        SIVAKUMAR                           SINDHU                          AS 0455AS 0455KK300516LAX SEA      000000  Y                                                                                                                                                                      X
A201606070000242                   AS BA                 97611579                                                        SANNA                               ASTRID                          AS 0471AS 0471VV300516LAX SEA      000000  Y                                                                                                                                                                      X
A201606070000243                   AS BA                 20177316                                                        BACA                                RICHARD MR                      AS 0282AS 0282UU030616LAX SJO      000000  Y                                                                                                                                                                      X
A201606070000244                   AS BA                 19314640                                                        ENDSLEY                             KIRA MRS                        AS 0282AS 0282UU030616LAX SJO      000000  Y                                                                                                                                                                      X
A201606070000245                   AS BA                 22282085                                                        GLASER                              AUBREY                          AS 2498AS 2498MM030616LAX STS      000000  Y                                                                                                                                                                      X
A201606070000246                   AS BA                 25454746                                                        GLASER                              CAROL                           AS 2498AS 2498MM030616LAX STS      000000  Y                                                                                                                                                                      X
